{
  "_format": "hh-sol-artifact-1",
  "contractName": "GoerliHTLC",
  "sourceName": "contracts/GoerliHTLC.sol",
  "abi": [
    {
      "inputs": [
        {
          "internalType": "uint256",
          "name": "_orderId",
          "type": "uint256"
        }
      ],
      "name": "confirmOrder",
      "outputs": [],
      "stateMutability": "nonpayable",
      "type": "function"
    },
    {
      "inputs": [
        {
          "internalType": "bytes32",
          "name": "_hash",
          "type": "bytes32"
        },
        {
          "internalType": "uint256",
          "name": "_amountInWei",
          "type": "uint256"
        },
        {
          "internalType": "uint256",
          "name": "_amountWantedInWei",
          "type": "uint256"
        },
        {
          "internalType": "uint256",
          "name": "_lockTime",
          "type": "uint256"
        }
      ],
      "name": "createOrder",
      "outputs": [],
      "stateMutability": "payable",
      "type": "function"
    },
    {
      "inputs": [
        {
          "internalType": "uint256",
          "name": "",
          "type": "uint256"
        }
      ],
      "name": "orders",
      "outputs": [
        {
          "internalType": "address",
          "name": "receipient",
          "type": "address"
        },
        {
          "internalType": "address",
          "name": "owner",
          "type": "address"
        },
        {
          "internalType": "uint256",
          "name": "lockTime",
          "type": "uint256"
        },
        {
          "internalType": "string",
          "name": "secret",
          "type": "string"
        },
        {
          "internalType": "bytes32",
          "name": "hash",
          "type": "bytes32"
        },
        {
          "internalType": "uint256",
          "name": "amount",
          "type": "uint256"
        },
        {
          "internalType": "uint256",
          "name": "amountWanted",
          "type": "uint256"
        },
        {
          "internalType": "bool",
          "name": "completed",
          "type": "bool"
        }
      ],
      "stateMutability": "view",
      "type": "function"
    },
    {
      "inputs": [
        {
          "internalType": "uint256",
          "name": "_orderId",
          "type": "uint256"
        }
      ],
      "name": "refund",
      "outputs": [],
      "stateMutability": "nonpayable",
      "type": "function"
    },
    {
      "inputs": [],
      "name": "totalOrders",
      "outputs": [
        {
          "internalType": "uint256",
          "name": "",
          "type": "uint256"
        }
      ],
      "stateMutability": "view",
      "type": "function"
    },
    {
      "inputs": [
        {
          "internalType": "uint256",
          "name": "_orderId",
          "type": "uint256"
        },
        {
          "internalType": "string",
          "name": "_secret",
          "type": "string"
        }
      ],
      "name": "withdraw",
      "outputs": [],
      "stateMutability": "nonpayable",
      "type": "function"
    }
  ],
  "bytecode": "0x608060405234801561001057600080fd5b50611875806100206000396000f3fe6080604052600436106100555760003560e01c80631d8344091461005a578063278ecde1146100855780638ac7d79c146100ae578063a85c38ef146100d7578063dc048cf21461011b578063e07deff414610144575b600080fd5b34801561006657600080fd5b5061006f610160565b60405161007c9190610b89565b60405180910390f35b34801561009157600080fd5b506100ac60048036038101906100a79190610be4565b610166565b005b3480156100ba57600080fd5b506100d560048036038101906100d09190610be4565b6103f2565b005b3480156100e357600080fd5b506100fe60048036038101906100f99190610be4565b610590565b604051610112989796959493929190610d16565b60405180910390f35b34801561012757600080fd5b50610142600480360381019061013d9190610ed0565b6106ad565b005b61015e60048036038101906101599190610f58565b610982565b005b60015481565b60008082815260200190815260200160002060010160009054906101000a900473ffffffffffffffffffffffffffffffffffffffff1673ffffffffffffffffffffffffffffffffffffffff163373ffffffffffffffffffffffffffffffffffffffff1614610209576040517f08c379a00000000000000000000000000000000000000000000000000000000081526004016102009061100b565b60405180910390fd5b6000151560008083815260200190815260200160002060070160009054906101000a900460ff16151514610272576040517f08c379a000000000000000000000000000000000000000000000000000000000815260040161026990611077565b60405180910390fd5b600080828152602001908152602001600020600201544210156102ca576040517f08c379a00000000000000000000000000000000000000000000000000000000081526004016102c1906110e3565b60405180910390fd5b600160008083815260200190815260200160002060070160006101000a81548160ff021916908315150217905550600080600083815260200190815260200160002060010160009054906101000a900473ffffffffffffffffffffffffffffffffffffffff1673ffffffffffffffffffffffffffffffffffffffff166000808481526020019081526020016000206005015460405161036890611134565b60006040518083038185875af1925050503d80600081146103a5576040519150601f19603f3d011682016040523d82523d6000602084013e6103aa565b606091505b50509050806103ee576040517f08c379a00000000000000000000000000000000000000000000000000000000081526004016103e590611195565b60405180910390fd5b5050565b60008082815260200190815260200160002060010160009054906101000a900473ffffffffffffffffffffffffffffffffffffffff1673ffffffffffffffffffffffffffffffffffffffff163373ffffffffffffffffffffffffffffffffffffffff1603610495576040517f08c379a000000000000000000000000000000000000000000000000000000000815260040161048c90611227565b60405180910390fd5b600073ffffffffffffffffffffffffffffffffffffffff1660008083815260200190815260200160002060000160009054906101000a900473ffffffffffffffffffffffffffffffffffffffff1673ffffffffffffffffffffffffffffffffffffffff1614610539576040517f08c379a000000000000000000000000000000000000000000000000000000000815260040161053090611293565b60405180910390fd5b3360008083815260200190815260200160002060000160006101000a81548173ffffffffffffffffffffffffffffffffffffffff021916908373ffffffffffffffffffffffffffffffffffffffff16021790555050565b60006020528060005260406000206000915090508060000160009054906101000a900473ffffffffffffffffffffffffffffffffffffffff16908060010160009054906101000a900473ffffffffffffffffffffffffffffffffffffffff1690806002015490806003018054610605906112e2565b80601f0160208091040260200160405190810160405280929190818152602001828054610631906112e2565b801561067e5780601f106106535761010080835404028352916020019161067e565b820191906000526020600020905b81548152906001019060200180831161066157829003601f168201915b5050505050908060040154908060050154908060060154908060070160009054906101000a900460ff16905088565b60008083815260200190815260200160002060040154816040516020016106d4919061134f565b604051602081830303815290604052805190602001201461072a576040517f08c379a0000000000000000000000000000000000000000000000000000000008152600401610721906113b2565b60405180910390fd5b60008083815260200190815260200160002060000160009054906101000a900473ffffffffffffffffffffffffffffffffffffffff1673ffffffffffffffffffffffffffffffffffffffff163373ffffffffffffffffffffffffffffffffffffffff16146107cd576040517f08c379a00000000000000000000000000000000000000000000000000000000081526004016107c49061141e565b60405180910390fd5b6000151560008084815260200190815260200160002060070160009054906101000a900460ff16151514610836576040517f08c379a000000000000000000000000000000000000000000000000000000000815260040161082d9061148a565b60405180910390fd5b8060008084815260200190815260200160002060030190816108589190611656565b50600160008084815260200190815260200160002060070160006101000a81548160ff021916908315150217905550600080600084815260200190815260200160002060000160009054906101000a900473ffffffffffffffffffffffffffffffffffffffff1673ffffffffffffffffffffffffffffffffffffffff16600080858152602001908152602001600020600501546040516108f790611134565b60006040518083038185875af1925050503d8060008114610934576040519150601f19603f3d011682016040523d82523d6000602084013e610939565b606091505b505090508061097d576040517f08c379a000000000000000000000000000000000000000000000000000000000815260040161097490611195565b60405180910390fd5b505050565b823410156109c5576040517f08c379a00000000000000000000000000000000000000000000000000000000081526004016109bc90611774565b60405180910390fd5b600160008154809291906109d8906117c3565b91905055506000604051806101000160405280600073ffffffffffffffffffffffffffffffffffffffff1681526020013373ffffffffffffffffffffffffffffffffffffffff1681526020018342610a30919061180b565b815260200160405180602001604052806000815250815260200186815260200185815260200184815260200160001515815250905080600080600154815260200190815260200160002060008201518160000160006101000a81548173ffffffffffffffffffffffffffffffffffffffff021916908373ffffffffffffffffffffffffffffffffffffffff16021790555060208201518160010160006101000a81548173ffffffffffffffffffffffffffffffffffffffff021916908373ffffffffffffffffffffffffffffffffffffffff160217905550604082015181600201556060820151816003019081610b279190611656565b506080820151816004015560a0820151816005015560c0820151816006015560e08201518160070160006101000a81548160ff0219169083151502179055509050505050505050565b6000819050919050565b610b8381610b70565b82525050565b6000602082019050610b9e6000830184610b7a565b92915050565b6000604051905090565b600080fd5b600080fd5b610bc181610b70565b8114610bcc57600080fd5b50565b600081359050610bde81610bb8565b92915050565b600060208284031215610bfa57610bf9610bae565b5b6000610c0884828501610bcf565b91505092915050565b600073ffffffffffffffffffffffffffffffffffffffff82169050919050565b6000610c3c82610c11565b9050919050565b610c4c81610c31565b82525050565b600081519050919050565b600082825260208201905092915050565b60005b83811015610c8c578082015181840152602081019050610c71565b60008484015250505050565b6000601f19601f8301169050919050565b6000610cb482610c52565b610cbe8185610c5d565b9350610cce818560208601610c6e565b610cd781610c98565b840191505092915050565b6000819050919050565b610cf581610ce2565b82525050565b60008115159050919050565b610d1081610cfb565b82525050565b600061010082019050610d2c600083018b610c43565b610d39602083018a610c43565b610d466040830189610b7a565b8181036060830152610d588188610ca9565b9050610d676080830187610cec565b610d7460a0830186610b7a565b610d8160c0830185610b7a565b610d8e60e0830184610d07565b9998505050505050505050565b600080fd5b600080fd5b7f4e487b7100000000000000000000000000000000000000000000000000000000600052604160045260246000fd5b610ddd82610c98565b810181811067ffffffffffffffff82111715610dfc57610dfb610da5565b5b80604052505050565b6000610e0f610ba4565b9050610e1b8282610dd4565b919050565b600067ffffffffffffffff821115610e3b57610e3a610da5565b5b610e4482610c98565b9050602081019050919050565b82818337600083830152505050565b6000610e73610e6e84610e20565b610e05565b905082815260208101848484011115610e8f57610e8e610da0565b5b610e9a848285610e51565b509392505050565b600082601f830112610eb757610eb6610d9b565b5b8135610ec7848260208601610e60565b91505092915050565b60008060408385031215610ee757610ee6610bae565b5b6000610ef585828601610bcf565b925050602083013567ffffffffffffffff811115610f1657610f15610bb3565b5b610f2285828601610ea2565b9150509250929050565b610f3581610ce2565b8114610f4057600080fd5b50565b600081359050610f5281610f2c565b92915050565b60008060008060808587031215610f7257610f71610bae565b5b6000610f8087828801610f43565b9450506020610f9187828801610bcf565b9350506040610fa287828801610bcf565b9250506060610fb387828801610bcf565b91505092959194509250565b7f4e6f7420617574686f72697a6564000000000000000000000000000000000000600082015250565b6000610ff5600e83610c5d565b915061100082610fbf565b602082019050919050565b6000602082019050818103600083015261102481610fe8565b9050919050565b7f546865206f7264657220686173206265656e20636f6d706c6574656400000000600082015250565b6000611061601c83610c5d565b915061106c8261102b565b602082019050919050565b6000602082019050818103600083015261109081611054565b9050919050565b7f5374696c6c206c6f636b65642e20706c65617365207761697400000000000000600082015250565b60006110cd601983610c5d565b91506110d882611097565b602082019050919050565b600060208201905081810360008301526110fc816110c0565b9050919050565b600081905092915050565b50565b600061111e600083611103565b91506111298261110e565b600082019050919050565b600061113f82611111565b9150819050919050565b7f4661696c656420746f2073656e64204574686572000000000000000000000000600082015250565b600061117f601483610c5d565b915061118a82611149565b602082019050919050565b600060208201905081810360008301526111ae81611172565b9050919050565b7f596f752063616e6e6f7420636f6e6669726d20796f7572206f776e206f72646560008201527f7200000000000000000000000000000000000000000000000000000000000000602082015250565b6000611211602183610c5d565b915061121c826111b5565b604082019050919050565b6000602082019050818103600083015261124081611204565b9050919050565b7f536f6d656f6e652068617320616c726561647920726571756573746564000000600082015250565b600061127d601d83610c5d565b915061128882611247565b602082019050919050565b600060208201905081810360008301526112ac81611270565b9050919050565b7f4e487b7100000000000000000000000000000000000000000000000000000000600052602260045260246000fd5b600060028204905060018216806112fa57607f821691505b60208210810361130d5761130c6112b3565b5b50919050565b600081905092915050565b600061132982610c52565b6113338185611313565b9350611343818560208601610c6e565b80840191505092915050565b600061135b828461131e565b915081905092915050565b7f596f7520656e7465726564207468652077726f6e672073656372657400000000600082015250565b600061139c601c83610c5d565b91506113a782611366565b602082019050919050565b600060208201905081810360008301526113cb8161138f565b9050919050565b7f4e6f7420417574686f72697a6564000000000000000000000000000000000000600082015250565b6000611408600e83610c5d565b9150611413826113d2565b602082019050919050565b60006020820190508181036000830152611437816113fb565b9050919050565b7f416c7265616479207472616e7361637465640000000000000000000000000000600082015250565b6000611474601283610c5d565b915061147f8261143e565b602082019050919050565b600060208201905081810360008301526114a381611467565b9050919050565b60008190508160005260206000209050919050565b60006020601f8301049050919050565b600082821b905092915050565b60006008830261150c7fffffffffffffffffffffffffffffffffffffffffffffffffffffffffffffffff826114cf565b61151686836114cf565b95508019841693508086168417925050509392505050565b6000819050919050565b600061155361154e61154984610b70565b61152e565b610b70565b9050919050565b6000819050919050565b61156d83611538565b6115816115798261155a565b8484546114dc565b825550505050565b600090565b611596611589565b6115a1818484611564565b505050565b5b818110156115c5576115ba60008261158e565b6001810190506115a7565b5050565b601f82111561160a576115db816114aa565b6115e4846114bf565b810160208510156115f3578190505b6116076115ff856114bf565b8301826115a6565b50505b505050565b600082821c905092915050565b600061162d6000198460080261160f565b1980831691505092915050565b6000611646838361161c565b9150826002028217905092915050565b61165f82610c52565b67ffffffffffffffff81111561167857611677610da5565b5b61168282546112e2565b61168d8282856115c9565b600060209050601f8311600181146116c057600084156116ae578287015190505b6116b8858261163a565b865550611720565b601f1984166116ce866114aa565b60005b828110156116f6578489015182556001820191506020850194506020810190506116d1565b86831015611713578489015161170f601f89168261161c565b8355505b6001600288020188555050505b505050505050565b7f506c656173652073656e642074686520636f727265637420616d6f756e740000600082015250565b600061175e601e83610c5d565b915061176982611728565b602082019050919050565b6000602082019050818103600083015261178d81611751565b9050919050565b7f4e487b7100000000000000000000000000000000000000000000000000000000600052601160045260246000fd5b60006117ce82610b70565b91507fffffffffffffffffffffffffffffffffffffffffffffffffffffffffffffffff8203611800576117ff611794565b5b600182019050919050565b600061181682610b70565b915061182183610b70565b925082820190508082111561183957611838611794565b5b9291505056fea2646970667358221220e85a41206d7ab6ee6a27f302618f0fb8d1ce2e34ca8e4a8d91de17e0feadc06664736f6c63430008100033",
  "linkReferences": {},
  "deployedLinkReferences": {}
}