{
  "_format": "hh-sol-artifact-1",
  "contractName": "PolygonHTLC",
  "sourceName": "contracts/PolygonHTLC.sol",
  "abi": [
    {
      "anonymous": false,
      "inputs": [
        {
          "indexed": true,
          "internalType": "address",
          "name": "previousOwner",
          "type": "address"
        },
        {
          "indexed": true,
          "internalType": "address",
          "name": "newOwner",
          "type": "address"
        }
      ],
      "name": "OwnershipTransferred",
      "type": "event"
    },
    {
      "inputs": [],
      "name": "FEE",
      "outputs": [
        {
          "internalType": "uint256",
          "name": "",
          "type": "uint256"
        }
      ],
      "stateMutability": "view",
      "type": "function"
    },
    {
      "inputs": [
        {
          "internalType": "bytes32",
          "name": "_hash",
          "type": "bytes32"
        },
        {
          "internalType": "address",
          "name": "_receipient",
          "type": "address"
        },
        {
          "internalType": "uint256",
          "name": "_amountInWei",
          "type": "uint256"
        },
        {
          "internalType": "uint256",
          "name": "_lockTime",
          "type": "uint256"
        }
      ],
      "name": "createOrder",
      "outputs": [],
      "stateMutability": "payable",
      "type": "function"
    },
    {
      "inputs": [],
      "name": "feesAccumulated",
      "outputs": [
        {
          "internalType": "uint256",
          "name": "",
          "type": "uint256"
        }
      ],
      "stateMutability": "view",
      "type": "function"
    },
    {
      "inputs": [
        {
          "internalType": "uint256",
          "name": "",
          "type": "uint256"
        }
      ],
      "name": "orders",
      "outputs": [
        {
          "internalType": "address",
          "name": "receipient",
          "type": "address"
        },
        {
          "internalType": "address",
          "name": "owner",
          "type": "address"
        },
        {
          "internalType": "uint256",
          "name": "lockTime",
          "type": "uint256"
        },
        {
          "internalType": "string",
          "name": "secret",
          "type": "string"
        },
        {
          "internalType": "bytes32",
          "name": "hash",
          "type": "bytes32"
        },
        {
          "internalType": "uint256",
          "name": "amount",
          "type": "uint256"
        },
        {
          "internalType": "bool",
          "name": "completed",
          "type": "bool"
        }
      ],
      "stateMutability": "view",
      "type": "function"
    },
    {
      "inputs": [],
      "name": "owner",
      "outputs": [
        {
          "internalType": "address",
          "name": "",
          "type": "address"
        }
      ],
      "stateMutability": "view",
      "type": "function"
    },
    {
      "inputs": [
        {
          "internalType": "uint256",
          "name": "_orderId",
          "type": "uint256"
        }
      ],
      "name": "refund",
      "outputs": [],
      "stateMutability": "nonpayable",
      "type": "function"
    },
    {
      "inputs": [],
      "name": "renounceOwnership",
      "outputs": [],
      "stateMutability": "nonpayable",
      "type": "function"
    },
    {
      "inputs": [],
      "name": "totalOrders",
      "outputs": [
        {
          "internalType": "uint256",
          "name": "",
          "type": "uint256"
        }
      ],
      "stateMutability": "view",
      "type": "function"
    },
    {
      "inputs": [
        {
          "internalType": "address",
          "name": "newOwner",
          "type": "address"
        }
      ],
      "name": "transferOwnership",
      "outputs": [],
      "stateMutability": "nonpayable",
      "type": "function"
    },
    {
      "inputs": [
        {
          "internalType": "uint256",
          "name": "_orderId",
          "type": "uint256"
        },
        {
          "internalType": "string",
          "name": "_secret",
          "type": "string"
        }
      ],
      "name": "withdraw",
      "outputs": [],
      "stateMutability": "nonpayable",
      "type": "function"
    },
    {
      "inputs": [],
      "name": "withdrawFees",
      "outputs": [],
      "stateMutability": "nonpayable",
      "type": "function"
    }
  ],
  "bytecode": "0x608060405234801561001057600080fd5b5061002d61002261003260201b60201c565b61003a60201b60201c565b6100fe565b600033905090565b60008060009054906101000a900473ffffffffffffffffffffffffffffffffffffffff169050816000806101000a81548173ffffffffffffffffffffffffffffffffffffffff021916908373ffffffffffffffffffffffffffffffffffffffff1602179055508173ffffffffffffffffffffffffffffffffffffffff168173ffffffffffffffffffffffffffffffffffffffff167f8be0079c531659141344cd1fd0a4f28419497f9722a3daafe3b4186f6b6457e060405160405180910390a35050565b611b408061010d6000396000f3fe60806040526004361061009c5760003560e01c8063715018a611610064578063715018a6146101535780638da5cb5b1461016a578063a85c38ef14610195578063c57981b5146101d8578063dc048cf214610203578063f2fde38b1461022c5761009c565b8063134e9c67146100a157806318349111146100bd5780631d834409146100e8578063278ecde114610113578063476343ee1461013c575b600080fd5b6100bb60048036038101906100b69190610eb4565b610255565b005b3480156100c957600080fd5b506100d2610464565b6040516100df9190610f2a565b60405180910390f35b3480156100f457600080fd5b506100fd61046a565b60405161010a9190610f2a565b60405180910390f35b34801561011f57600080fd5b5061013a60048036038101906101359190610f45565b610470565b005b34801561014857600080fd5b50610151610701565b005b34801561015f57600080fd5b506101686107cf565b005b34801561017657600080fd5b5061017f6107e3565b60405161018c9190610f81565b60405180910390f35b3480156101a157600080fd5b506101bc60048036038101906101b79190610f45565b61080c565b6040516101cf9796959493929190611056565b60405180910390f35b3480156101e457600080fd5b506101ed610923565b6040516101fa9190610f2a565b60405180910390f35b34801561020f57600080fd5b5061022a60048036038101906102259190611201565b61092e565b005b34801561023857600080fd5b50610253600480360381019061024e919061125d565b610c09565b005b66038d7ea4c680008261026891906112b9565b3410156102aa576040517f08c379a00000000000000000000000000000000000000000000000000000000081526004016102a190611339565b60405180910390fd5b66038d7ea4c68000600360008282546102c391906112b9565b92505081905550600260008154809291906102dd90611359565b919050555060006040518060e001604052808573ffffffffffffffffffffffffffffffffffffffff1681526020013373ffffffffffffffffffffffffffffffffffffffff168152602001834261033391906112b9565b81526020016040518060200160405280600081525081526020018681526020018481526020016000151581525090508060016000600254815260200190815260200160002060008201518160000160006101000a81548173ffffffffffffffffffffffffffffffffffffffff021916908373ffffffffffffffffffffffffffffffffffffffff16021790555060208201518160010160006101000a81548173ffffffffffffffffffffffffffffffffffffffff021916908373ffffffffffffffffffffffffffffffffffffffff16021790555060408201518160020155606082015181600301908161042591906115ad565b506080820151816004015560a0820151816005015560c08201518160060160006101000a81548160ff0219169083151502179055509050505050505050565b60035481565b60025481565b6001600082815260200190815260200160002060010160009054906101000a900473ffffffffffffffffffffffffffffffffffffffff1673ffffffffffffffffffffffffffffffffffffffff163373ffffffffffffffffffffffffffffffffffffffff1614610514576040517f08c379a000000000000000000000000000000000000000000000000000000000815260040161050b906116cb565b60405180910390fd5b600015156001600083815260200190815260200160002060060160009054906101000a900460ff1615151461057e576040517f08c379a000000000000000000000000000000000000000000000000000000000815260040161057590611737565b60405180910390fd5b60016000828152602001908152602001600020600201544210156105d7576040517f08c379a00000000000000000000000000000000000000000000000000000000081526004016105ce906117a3565b60405180910390fd5b600180600083815260200190815260200160002060060160006101000a81548160ff02191690831515021790555060006001600083815260200190815260200160002060010160009054906101000a900473ffffffffffffffffffffffffffffffffffffffff1673ffffffffffffffffffffffffffffffffffffffff166001600084815260200190815260200160002060050154604051610677906117f4565b60006040518083038185875af1925050503d80600081146106b4576040519150601f19603f3d011682016040523d82523d6000602084013e6106b9565b606091505b50509050806106fd576040517f08c379a00000000000000000000000000000000000000000000000000000000081526004016106f490611855565b60405180910390fd5b5050565b610709610c8c565b60006003549050600060038190555060006107226107e3565b73ffffffffffffffffffffffffffffffffffffffff1682604051610745906117f4565b60006040518083038185875af1925050503d8060008114610782576040519150601f19603f3d011682016040523d82523d6000602084013e610787565b606091505b50509050806107cb576040517f08c379a00000000000000000000000000000000000000000000000000000000081526004016107c290611855565b60405180910390fd5b5050565b6107d7610c8c565b6107e16000610d0a565b565b60008060009054906101000a900473ffffffffffffffffffffffffffffffffffffffff16905090565b60016020528060005260406000206000915090508060000160009054906101000a900473ffffffffffffffffffffffffffffffffffffffff16908060010160009054906101000a900473ffffffffffffffffffffffffffffffffffffffff1690806002015490806003018054610881906113d0565b80601f01602080910402602001604051908101604052809291908181526020018280546108ad906113d0565b80156108fa5780601f106108cf576101008083540402835291602001916108fa565b820191906000526020600020905b8154815290600101906020018083116108dd57829003601f168201915b5050505050908060040154908060050154908060060160009054906101000a900460ff16905087565b66038d7ea4c6800081565b60016000838152602001908152602001600020600401548160405160200161095691906118b1565b60405160208183030381529060405280519060200120146109ac576040517f08c379a00000000000000000000000000000000000000000000000000000000081526004016109a390611914565b60405180910390fd5b6001600083815260200190815260200160002060000160009054906101000a900473ffffffffffffffffffffffffffffffffffffffff1673ffffffffffffffffffffffffffffffffffffffff163373ffffffffffffffffffffffffffffffffffffffff1614610a50576040517f08c379a0000000000000000000000000000000000000000000000000000000008152600401610a4790611980565b60405180910390fd5b600015156001600084815260200190815260200160002060060160009054906101000a900460ff16151514610aba576040517f08c379a0000000000000000000000000000000000000000000000000000000008152600401610ab1906119ec565b60405180910390fd5b80600160008481526020019081526020016000206003019081610add91906115ad565b50600180600084815260200190815260200160002060060160006101000a81548160ff02191690831515021790555060006001600084815260200190815260200160002060000160009054906101000a900473ffffffffffffffffffffffffffffffffffffffff1673ffffffffffffffffffffffffffffffffffffffff166001600085815260200190815260200160002060050154604051610b7e906117f4565b60006040518083038185875af1925050503d8060008114610bbb576040519150601f19603f3d011682016040523d82523d6000602084013e610bc0565b606091505b5050905080610c04576040517f08c379a0000000000000000000000000000000000000000000000000000000008152600401610bfb90611855565b60405180910390fd5b505050565b610c11610c8c565b600073ffffffffffffffffffffffffffffffffffffffff168173ffffffffffffffffffffffffffffffffffffffff1603610c80576040517f08c379a0000000000000000000000000000000000000000000000000000000008152600401610c7790611a7e565b60405180910390fd5b610c8981610d0a565b50565b610c94610dce565b73ffffffffffffffffffffffffffffffffffffffff16610cb26107e3565b73ffffffffffffffffffffffffffffffffffffffff1614610d08576040517f08c379a0000000000000000000000000000000000000000000000000000000008152600401610cff90611aea565b60405180910390fd5b565b60008060009054906101000a900473ffffffffffffffffffffffffffffffffffffffff169050816000806101000a81548173ffffffffffffffffffffffffffffffffffffffff021916908373ffffffffffffffffffffffffffffffffffffffff1602179055508173ffffffffffffffffffffffffffffffffffffffff168173ffffffffffffffffffffffffffffffffffffffff167f8be0079c531659141344cd1fd0a4f28419497f9722a3daafe3b4186f6b6457e060405160405180910390a35050565b600033905090565b6000604051905090565b600080fd5b600080fd5b6000819050919050565b610dfd81610dea565b8114610e0857600080fd5b50565b600081359050610e1a81610df4565b92915050565b600073ffffffffffffffffffffffffffffffffffffffff82169050919050565b6000610e4b82610e20565b9050919050565b610e5b81610e40565b8114610e6657600080fd5b50565b600081359050610e7881610e52565b92915050565b6000819050919050565b610e9181610e7e565b8114610e9c57600080fd5b50565b600081359050610eae81610e88565b92915050565b60008060008060808587031215610ece57610ecd610de0565b5b6000610edc87828801610e0b565b9450506020610eed87828801610e69565b9350506040610efe87828801610e9f565b9250506060610f0f87828801610e9f565b91505092959194509250565b610f2481610e7e565b82525050565b6000602082019050610f3f6000830184610f1b565b92915050565b600060208284031215610f5b57610f5a610de0565b5b6000610f6984828501610e9f565b91505092915050565b610f7b81610e40565b82525050565b6000602082019050610f966000830184610f72565b92915050565b600081519050919050565b600082825260208201905092915050565b60005b83811015610fd6578082015181840152602081019050610fbb565b60008484015250505050565b6000601f19601f8301169050919050565b6000610ffe82610f9c565b6110088185610fa7565b9350611018818560208601610fb8565b61102181610fe2565b840191505092915050565b61103581610dea565b82525050565b60008115159050919050565b6110508161103b565b82525050565b600060e08201905061106b600083018a610f72565b6110786020830189610f72565b6110856040830188610f1b565b81810360608301526110978187610ff3565b90506110a6608083018661102c565b6110b360a0830185610f1b565b6110c060c0830184611047565b98975050505050505050565b600080fd5b600080fd5b7f4e487b7100000000000000000000000000000000000000000000000000000000600052604160045260246000fd5b61110e82610fe2565b810181811067ffffffffffffffff8211171561112d5761112c6110d6565b5b80604052505050565b6000611140610dd6565b905061114c8282611105565b919050565b600067ffffffffffffffff82111561116c5761116b6110d6565b5b61117582610fe2565b9050602081019050919050565b82818337600083830152505050565b60006111a461119f84611151565b611136565b9050828152602081018484840111156111c0576111bf6110d1565b5b6111cb848285611182565b509392505050565b600082601f8301126111e8576111e76110cc565b5b81356111f8848260208601611191565b91505092915050565b6000806040838503121561121857611217610de0565b5b600061122685828601610e9f565b925050602083013567ffffffffffffffff81111561124757611246610de5565b5b611253858286016111d3565b9150509250929050565b60006020828403121561127357611272610de0565b5b600061128184828501610e69565b91505092915050565b7f4e487b7100000000000000000000000000000000000000000000000000000000600052601160045260246000fd5b60006112c482610e7e565b91506112cf83610e7e565b92508282019050808211156112e7576112e661128a565b5b92915050565b7f506c656173652073656e642074686520636f727265637420616d6f756e740000600082015250565b6000611323601e83610fa7565b915061132e826112ed565b602082019050919050565b6000602082019050818103600083015261135281611316565b9050919050565b600061136482610e7e565b91507fffffffffffffffffffffffffffffffffffffffffffffffffffffffffffffffff82036113965761139561128a565b5b600182019050919050565b7f4e487b7100000000000000000000000000000000000000000000000000000000600052602260045260246000fd5b600060028204905060018216806113e857607f821691505b6020821081036113fb576113fa6113a1565b5b50919050565b60008190508160005260206000209050919050565b60006020601f8301049050919050565b600082821b905092915050565b6000600883026114637fffffffffffffffffffffffffffffffffffffffffffffffffffffffffffffffff82611426565b61146d8683611426565b95508019841693508086168417925050509392505050565b6000819050919050565b60006114aa6114a56114a084610e7e565b611485565b610e7e565b9050919050565b6000819050919050565b6114c48361148f565b6114d86114d0826114b1565b848454611433565b825550505050565b600090565b6114ed6114e0565b6114f88184846114bb565b505050565b5b8181101561151c576115116000826114e5565b6001810190506114fe565b5050565b601f8211156115615761153281611401565b61153b84611416565b8101602085101561154a578190505b61155e61155685611416565b8301826114fd565b50505b505050565b600082821c905092915050565b600061158460001984600802611566565b1980831691505092915050565b600061159d8383611573565b9150826002028217905092915050565b6115b682610f9c565b67ffffffffffffffff8111156115cf576115ce6110d6565b5b6115d982546113d0565b6115e4828285611520565b600060209050601f8311600181146116175760008415611605578287015190505b61160f8582611591565b865550611677565b601f19841661162586611401565b60005b8281101561164d57848901518255600182019150602085019450602081019050611628565b8683101561166a5784890151611666601f891682611573565b8355505b6001600288020188555050505b505050505050565b7f4e6f7420617574686f72697a6564000000000000000000000000000000000000600082015250565b60006116b5600e83610fa7565b91506116c08261167f565b602082019050919050565b600060208201905081810360008301526116e4816116a8565b9050919050565b7f546865206f7264657220686173206265656e20636f6d706c6574656400000000600082015250565b6000611721601c83610fa7565b915061172c826116eb565b602082019050919050565b6000602082019050818103600083015261175081611714565b9050919050565b7f5374696c6c206c6f636b65642e20706c65617365207761697400000000000000600082015250565b600061178d601983610fa7565b915061179882611757565b602082019050919050565b600060208201905081810360008301526117bc81611780565b9050919050565b600081905092915050565b50565b60006117de6000836117c3565b91506117e9826117ce565b600082019050919050565b60006117ff826117d1565b9150819050919050565b7f4661696c656420746f2073656e64204574686572000000000000000000000000600082015250565b600061183f601483610fa7565b915061184a82611809565b602082019050919050565b6000602082019050818103600083015261186e81611832565b9050919050565b600081905092915050565b600061188b82610f9c565b6118958185611875565b93506118a5818560208601610fb8565b80840191505092915050565b60006118bd8284611880565b915081905092915050565b7f596f7520656e7465726564207468652077726f6e672073656372657400000000600082015250565b60006118fe601c83610fa7565b9150611909826118c8565b602082019050919050565b6000602082019050818103600083015261192d816118f1565b9050919050565b7f4e6f7420417574686f72697a6564000000000000000000000000000000000000600082015250565b600061196a600e83610fa7565b915061197582611934565b602082019050919050565b600060208201905081810360008301526119998161195d565b9050919050565b7f416c7265616479207472616e7361637465640000000000000000000000000000600082015250565b60006119d6601283610fa7565b91506119e1826119a0565b602082019050919050565b60006020820190508181036000830152611a05816119c9565b9050919050565b7f4f776e61626c653a206e6577206f776e657220697320746865207a65726f206160008201527f6464726573730000000000000000000000000000000000000000000000000000602082015250565b6000611a68602683610fa7565b9150611a7382611a0c565b604082019050919050565b60006020820190508181036000830152611a9781611a5b565b9050919050565b7f4f776e61626c653a2063616c6c6572206973206e6f7420746865206f776e6572600082015250565b6000611ad4602083610fa7565b9150611adf82611a9e565b602082019050919050565b60006020820190508181036000830152611b0381611ac7565b905091905056fea26469706673582212202a904f5f3554582dbb64396ca6a3e56634ea9e5e1ef457512fc8a5c02297e3e564736f6c63430008100033",
  "linkReferences": {},
  "deployedLinkReferences": {}
}